:100000000C9434000C9446000C9446000C9446006A
:100010000C9446000C9446000C9446000C94460048
:100020000C9446000C9446000C9446000C945F001F
:100030000C9446000C9483000C9446000C944600EB
:100040000C9446000C9446000C9446000C94460018
:100050000C9446000C94D7000C9446000C94460077
:100060000C9446000C94460011241FBECFEFD8E03C
:10007000DEBFCDBF21E0A0E0B1E001C01D92AE30F7
:10008000B207E1F70E9436010C94E8010C940000DD
:1000900017BC18BC81E883BD83EA84BD83E085BDBD
:1000A00091E0909380009BE09093810080936F009B
:1000B00016BC109285001092840013BC08951F9204
:1000C0000F920FB60F9211242F933F938F939F930C
:1000D00081E08093070180910501909106012091B4
:1000E0000001309101010597820F931F9093010148
:1000F000809300019F918F913F912F910F900FBEA0
:100100000F901F9018951F920F920FB60F92112407
:100110002F933F938F939F931092070180910C012F
:1001200090910D012091080130910901821B930BE0
:10013000459714F520910C0130910D018091080133
:1001400090910901820F931F959587952091020147
:1001500030910301821B930B90930601809305015C
:1001600081E0809304019F918F913F912F910F9097
:100170000FBE0F901F9018955A9A00005A98F3CF0F
:100180008EEC80937A0080E480937C0010920B01C7
:1001900010920A01109203011092020110920D01B7
:1001A00010920C01109209011092080108951F92FB
:1001B0000F920FB60F9211242F933F938F939F931B
:1001C000209178003091790080917C008F7081308F
:1001D000B1F148F18230C9F4809108019091090190
:1001E00028173907F4F180910C0190910D018217C5
:1001F000930724F430930D0120930C0180910701A3
:10020000811103C080E480937C0080917A00806437
:1002100080937A009F918F913F912F910F900FBE05
:100220000F901F90189530930B0120930A01809135
:100230000701882351F381E480937C00E6CF30935B
:1002400003012093020182E480937C008FEF93E00E
:10025000909309018093080110920D0110920C01F6
:10026000D4CF3093090120930801C8CF14B817B830
:1002700084E68AB9109207011092040117BC18BCD9
:1002800081E883BD83EA84BD83E085BD91E09093DE
:1002900080009BE09093810080936F0016BC1092C9
:1002A00085001092840013BC8EEC80937A0080E469
:1002B00080937C0010920B0110920A0110920301AE
:1002C0001092020110920D0110920C01109209017E
:1002D00010920801789417BC18BC85E680938800BA
:1002E00026E030E080910401882309F443C0000037
:1002F00000001092040180910A0190910B0192502C
:100300004091000150910101880F991F82959295AB
:10031000907F9827807F9827841B950BB9010E94B6
:10032000C00161304EEF740714F461E07EEF8091FC
:10033000050190910601611542E0740714F06FEF1A
:1003400071E0681B790B660F771F660F771F6433A8
:10035000710594F46D3C8FEF780714F46DEC7FEF2A
:100360001616170654F017BC619568BD80910401FC
:100370008111BDCF0000B6CF63E367BD18BCB2CF1B
:1003800097FB072E16F4009407D077FD09D00E9442
:10039000D40107FC05D03EF4909581959F4F0895B8
:1003A000709561957F4F0895AA1BBB1B51E107C053
:1003B000AA1FBB1FA617B70710F0A61BB70B881FF5
:1003C000991F5A95A9F780959095BC01CD01089584
:0403D000F894FFCFCF
:00000001FF
